:100000000C942A000C943F000C943F000C943F0089
:100010000C943F000C943F000C943F000C943F0064
:100020000C943F000C943F000C943F000C943F0054
:100030000C943F000C943F000C943F000C943F0044
:100040000C943F000C943F000C943F000C943F0034
:100050000C943F0011241FBECFE5D8E0DEBFCDBF1A
:1000600010E0A0E6B0E0E6E2F2E002C005900D92FA
:10007000AA37B107D9F70E94FE000C9411010C9425
:10008000000095B39F70282F207F922B95BB95B3CE
:100090009E7F95BB95B3926095BB35E03A95F1F79D
:1000A000000095B39D7F95BBEFE8F1E03197F1F744
:1000B00000C0000025B3F0E18F9FC0011124922FF2
:1000C0009F70892B85BB85B3826085BB35E03A95EF
:1000D000F1F7000085B38D7F85BB8FE891E0019734
:1000E000F1F700C00000089595B39F70282F207F7E
:1000F000922B95BB95B3916095BB95B3926095BBE0
:1001000035E03A95F1F7000095B39D7F95BBEFE898
:10011000F1E03197F1F700C0000025B3F0E18F9FC7
:10012000C0011124922F9F70892B85BB85B38260FB
:1001300085BB35E03A95F1F7000085B38D7F85BB2F
:100140008FE891E00197F1F700C0000008958FEF6C
:1001500084BB83E30E94410082E30E94410088E265
:100160000E9441008CE00E94410081E00E94410019
:100170008FE39FE10197F1F700C0000086E00E9445
:1001800041000895CF93DF9300D000D0CDB7DEB704
:1001900090E8998390EC9A8394E99B8394ED9C83F7
:1001A000E82FF0E0319781E090E08C0F9D1FE80F81
:1001B000F91F8081860F81500E9441008FE891E0F5
:1001C0000197F1F700C000000F900F900F900F9073
:1001D000DF91CF9108950F931F93CF938C01C0E0CF
:1001E00003C00E947400CF5FF801EC0FF11D808105
:1001F0008111F7CFCF911F910F9108950E94A70011
:1002000061E081E00E94C20080E690E00E94EB0085
:1002100061E082E00E94C2008CE690E00E94EB0068
:06022000FFCFF894FFCFB0
:1002260048656C6C6F204268617961006B7961206A
:0A0236006861616C206861690000D6
:00000001FF
