S01400006D6F746F725F6472697665722E73726563F4
S11300000C942A000C943F000C943F000C943F0085
S11300100C943F000C943F000C943F000C943F0060
S11300200C943F000C943F000C943F000C943F0050
S11300300C943F000C943F000C943F000C943F0040
S11300400C943F000C943F000C943F000C943F0030
S11300500C943F0011241FBECFE5D8E0DEBFCDBF16
S113006010E0A0E6B0E0EEE7F4E002C005900D92E7
S1130070A637B107D9F70E94E3000C943D020C9413
S1130080000095B39F70282F207F922B95BB95B3CA
S11300909E7F95BB95B3926095BB35E03A95F1F799
S11300A0000095B39D7F95BBEFE8F1E03197F1F740
S11300B000C0000025B3F0E18F9FC0011124922FEE
S11300C09F70892B85BB85B3826085BB35E03A95EB
S11300D0F1F7000085B38D7F85BB8FE891E0019730
S11300E0F1F700C0000008958FEF84BB83E30E9402
S11300F0410082E30E94410088E20E9441008CE0BA
S11301000E94410081E00E9441008FE39FE101973A
S1130110F1F700C0000086E00E94410008951F939B
S1130120CF93DF93182FEB0181B3806381BB6056BB
S11301307040E1F41BBC612F70E080E090E00E940D
S1130140440123E333E343E250E40E94A8010E9404
S113015013016ABD8FB581688FBD8EB589608EBD70
S11301608FB58F7C8FBD88B38F7E88BB80E0C83607
S1130170D807E1F419BC612F70E080E090E00E94A0
S1130180440123E333E343E250E40E94A8010E94C4
S1130190130168BD8FB581628FBD8EB589608EBD38
S11301A08FB58F738FBD88B38F7D88BBC057D04008
S11301B031F48FB58F708FBD82B38F7C82BBDF919A
S11301C0CF911F9108950E94740060E670E086E468
S11301D00E948F002AEA36EE86E991E021503040F1
S11301E080409040D9F7000068E670E084E60E9401
S11301F08F002AEA36EE86E991E0215030408040B3
S11302009040D9F7000060E770E080E00E948F0022
S11302102AEA36EE86E991E0215030408040904051
S1130220D9F70000D2CF0E94870188F09F5798F039
S1130230B92F9927B751B0F0E1F0660F771F881FE7
S1130240991F1AF0BA95C9F714C0B13091F00E9401
S1130250A101B1E008950C94A101672F782F88279C
S1130260B85F39F0B93FCCF3869577956795B39528
S1130270D9F73EF490958095709561957F4F8F4F97
S11302809F4F0895E89409C097FB3EF4909580959C
S1130290709561957F4F8F4F9F4F9923A9F0F92F48
S11302A096E9BB279395F695879577956795B795C6
S11302B0F111F8CFFAF4BB0F11F460FF1BC06F5FAC
S11302C07F4F8F4F9F4F16C0882311F096E911C0BE
S11302D0772321F09EE8872F762F05C0662371F0DF
S11302E096E8862F70E060E02AF09A95660F771FF3
S11302F0881FDAF7880F9695879597F9089557FD23
S11303009058440F551F59F05F3F71F04795880F7F
S113031097FB991F61F09F3F79F087950895121616
S113032013061406551FF2CF4695F1DF08C01616C2
S113033017061806991FF1CF869571056105089473
S11303400895E894BB2766277727CB0197F908958A
S11303500E94BB010C942C020E941E0238F00E94E1
S1130360250220F0952311F00C9415020C941B0225
S113037011240C94A2010E947F0170F3959FC1F394
S1130380950F50E0551F629FF001729FBB27F00D3F
S1130390B11D639FAA27F00DB11DAA1F649F662794
S11303A0B00DA11D661F829F2227B00DA11D621FE3
S11303B0739FB00DA11D621F839FA00D611D221F9D
S11303C0749F3327A00D611D231F849F600D211D81
S11303D0822F762F6A2F11249F5750409AF0F1F004
S11303E088234AF0EE0FFF1FBB1F661F771F881F6D
S11303F091505040A9F79E3F510580F00C9415028E
S11304000C94A2015F3FE4F3983ED4F3869577956C
S11304106795B795F795E7959F5FC1F7FE2B880F12
S1130420911D9695879597F9089597F99F6780E8A8
S113043070E060E008959FEF80EC089500240A9432
S11304401616170618060906089500240A941216AB
S11304501306140605060895092E0394000C11F4DE
S1130460882352F0BB0F40F4BF2B11F460FF04C08B
S11104706F5F7F4F8F4F9F4F0895F894FFCF1B
S113047E666F727761726400726576657273650079
S109048E73746F7000009E
S9030000FC
