S01C0000537465707065725F6D6F746F725F6472697665722E73726563AA
S11300000C942A000C943F000C943F000C943F0085
S11300100C943F000C943F000C943F000C943F0060
S11300200C943F000C943F000C943F000C943F0050
S11300300C943F000C943F000C943F000C943F0040
S11300400C943F000C943F000C943F000C943F0030
S11300500C943F0011241FBECFE5D8E0DEBFCDBF16
S113006010E0A0E6B0E0E4E8F5E002C005900D92EF
S1130070AC36B107D9F70E9465010C94C0020C9408
S1130080000095B39F70282F207F922B95BB95B3CA
S11300909E7F95BB95B3926095BB35E03A95F1F799
S11300A0000095B39D7F95BBEFE8F1E03197F1F740
S11300B000C0000025B3F0E18F9FC0011124922FEE
S11300C09F70892B85BB85B3826085BB35E03A95EB
S11300D0F1F7000085B38D7F85BB8FE891E0019730
S11300E0F1F700C00000089595B39F70282F207F7A
S11300F0922B95BB95B3916095BB95B3926095BBDC
S113010035E03A95F1F7000095B39D7F95BBEFE894
S1130110F1E03197F1F700C0000025B3F0E18F9FC3
S1130120C0011124922F9F70892B85BB85B38260F7
S113013085BB35E03A95F1F7000085B38D7F85BB2B
S11301408FE891E00197F1F700C0000008958FEF68
S113015084BB83E30E94410082E30E94410088E261
S11301600E9441008CE00E94410081E00E94410015
S11301708FE39FE10197F1F700C0000086E00E9441
S113018041000895CF93DF9300D000D0CDB7DEB700
S113019090E8998390EC9A8394E99B8394ED9C83F3
S11301A0E82FF0E0319781E090E08C0F9D1FE80F7D
S11301B0F91F8081860F81500E9441008FE891E0F1
S11301C00197F1F700C000000F900F900F900F906F
S11301D0DF91CF9108950F931F93CF938C01C0E0CB
S11301E003C00E947400CF5FF801EC0FF11D808101
S11301F08111F7CFCF911F910F910895CF93DF9382
S1130200EB01BC0180E090E00E94C50128EB3EE1D7
S113021045EB50E40E942B0220E030E040E85EE32E
S11302200E942B020E94960187B38F6087BB80E0F7
S1130230C036D80711F51CC021E028BBEFEDFEE263
S11302403197F1F700C0000022E028BBEFEDFEE299
S11302503197F1F700C0000024E028BBEFEDFEE287
S11302603197F1F700C0000028E028BB019602C0D6
S113027080E090E086179707F8F2C656D04011F553
S11302801CC028E028BBEFEDFEE23197F1F700C077
S1130290000024E028BBEFEDFEE23197F1F700C047
S11302A0000022E028BBEFEDFEE23197F1F700C039
S11302B0000021E028BB019602C080E090E0861790
S11302C09707F8F2DF91CF9108950E94A70060E6A6
S11302D070E08AE590E00E94FE0061E081E00E9407
S11302E0C20080E690E00E94EB002FEF8BE792E9DA
S11302F0215080409040E1F700C0000066E670E0C5
S11303008AE590E00E94FE0061E081E00E94C20064
S113031086E690E00E94EB002FEF8BE792E92150F4
S113032080409040E1F700C00000D1CF0E940A0253
S113033088F09F5798F0B92F9927B751B0F0E1F0A2
S1130340660F771F881F991F1AF0BA95C9F714C052
S1130350B13091F00E942402B1E008950C9424027B
S1130360672F782F8827B85F39F0B93FCCF386958B
S113037077956795B395D9F73EF4909580957095E8
S113038061957F4F8F4F9F4F0895E89409C097FB65
S11303903EF490958095709561957F4F8F4F9F4F58
S11303A09923A9F0F92F96E9BB279395F69587959C
S11303B077956795B795F111F8CFFAF4BB0F11F45F
S11303C060FF1BC06F5F7F4F8F4F9F4F16C0882306
S11303D011F096E911C0772321F09EE8872F762F3C
S11303E005C0662371F096E8862F70E060E02AF07D
S11303F09A95660F771F881FDAF7880F9695879569
S113040097F9089557FD9058440F551F59F05F3FD1
S113041071F04795880F97FB991F61F09F3F79F022
S113042087950895121613061406551FF2CF4695A4
S1130430F1DF08C0161617061806991FF1CF869526
S11304407105610508940895E894BB27662777270A
S1130450CB0197F908950E943E020C94AF020E94CA
S1130460A10238F00E94A80220F0952311F00C9408
S113047098020C949E0211240C9425020E940202FC
S113048070F3959FC1F3950F50E0551F629FF001E3
S1130490729FBB27F00DB11D639FAA27F00DB11DFC
S11304A0AA1F649F6627B00DA11D661F829F222785
S11304B0B00DA11D621F739FB00DA11D621F839F0C
S11304C0A00D611D221F749F3327A00D611D231FE2
S11304D0849F600D211D822F762F6A2F11249F5730
S11304E050409AF0F1F088234AF0EE0FFF1FBB1F33
S11304F0661F771F881F91505040A9F79E3F5105F2
S113050080F00C9498020C9425025F3FE4F3983E2B
S1130510D4F3869577956795B795F795E7959F5F9B
S1130520C1F7FE2B880F911D9695879597F908952D
S113053097F99F6780E870E060E008959FEF80EC92
S1130540089500240A941616170618060906089535
S113055000240A9412161306140605060895092E9B
S11305600394000C11F4882352F0BB0F40F4BF2B0A
S113057011F460FF04C06F5F7F4F8F4F9F4F08954A
S1070580F894FFCF19
S10F05847269676874006C65667400009E
S9030000FC
