:100000000C942A000C9434000C9434000C943400AA
:100010000C9434000C9434000C9434000C94340090
:100020000C9434000C9434000C9434000C94340080
:100030000C9434000C9434000C9434000C94340070
:100040000C9434000C9434000C9434000C94340060
:100050000C94340011241FBECFE5D8E0DEBFCDBF25
:100060000E94F3000C9462010C94000095B39F7001
:10007000282F207F922B95BB95B39E7F95BB95B380
:10008000926095BB35E03A95F1F7000095B39D7FFE
:1000900095BBEFE8F1E03197F1F700C0000025B320
:1000A000F0E18F9FC0011124922F9F70892B85BB97
:1000B00085B3826085BB35E03A95F1F7000085B3E2
:1000C0008D7F85BB8FE891E00197F1F700C00000BC
:1000D000089595B39F70282F207F922B95BB95B3E1
:1000E000916095BB95B3926095BB35E03A95F1F779
:1000F000000095B39D7F95BBEFE8F1E03197F1F7F4
:1001000000C0000025B3F0E18F9FC0011124922FA1
:100110009F70892B85BB85B3826085BB35E03A959E
:10012000F1F7000085B38D7F85BB8FE891E00197E3
:10013000F1F700C0000008958FEF84BB83E30E94B5
:10014000360082E30E94360088E20E9436008CE08E
:100150000E94360081E00E9436008FE39FE1019704
:10016000F1F700C0000086E00E9436000895CF93AA
:10017000DF9300D000D0CDB7DEB790E8998390EC44
:100180009A8394E99B8394ED9C83E82FF0E0319768
:1001900081E090E08C0F9D1FE80FF91F8081860F92
:1001A00081500E9436008FE891E00197F1F700C07E
:1001B00000000F900F900F900F90DF91CF91089556
:1001C0000F931F93CF938C01C0E003C00E9469007E
:1001D000CF5FF801EC0FF11D80818111F7CFCF9136
:1001E0001F910F910895CF93DF93CDB7DEB764973A
:1001F0000FB6F894DEBF0FBECDBF0E949C004AE050
:1002000050E0BE016F5F7F4F8FE192E00E942201BC
:1002100061E081E00E94B700CE0101960E94E000FB
:100220004AE050E0BE016F5F7F4F8EE492E00E9493
:10023000220161E082E00E94B700CE0101960E9497
:10024000E000FFCF4532510520F4423010F00C940D
:100250002D01FB011082CB010895BB274A3031F4F8
:10026000992322F4BDE2909581959F4F0C9439011A
:10027000BB27FB015527AA27880F991FAA1FA41780
:1002800010F0A41B83955051B9F7A05DAA3308F074
:10029000A95DA193009779F7B111B1931192CB01A8
:1002A0000C945201DC01FC01672F71917723E1F777
:1002B000329704C07C916D9370836291AE17BF0733
:0802C000C8F30895F894FFCF84
:00000001FF
