:100000000C942A000C9447000C9447000C94470071
:100010000C9447000C9447000C9447000C94470044
:100020000C9447000C9447000C9447000C94470034
:100030000C9447000C9447000C9447000C94470024
:100040000C9447000C9447000C9447000C94470014
:100050000C94470011241FBECFE5D8E0DEBFCDBF12
:1000600010E0A0E6B0E0ECE8F4E002C005900D92EC
:10007000A836B107D9F720E0A8E6B0E001C01D928C
:10008000A337B207E1F70E94F5010C9444020C94E7
:10009000000095B39F70282F207F922B95BB95B3BE
:1000A0009E7F95BB95B3926095BB35E03A95F1F78D
:1000B000000095B39D7F95BBEFE8F1E03197F1F734
:1000C00000C0000025B3F0E18F9FC0011124922FE2
:1000D0009F70892B85BB85B3826085BB35E03A95DF
:1000E000F1F7000085B38D7F85BB8FE891E0019724
:1000F000F1F700C00000089595B39F70282F207F6E
:10010000922B95BB95B3916095BB95B3926095BBCF
:1001100035E03A95F1F7000095B39D7F95BBEFE888
:10012000F1E03197F1F700C0000025B3F0E18F9FB7
:10013000C0011124922F9F70892B85BB85B38260EB
:1001400085BB35E03A95F1F7000085B38D7F85BB1F
:100150008FE891E00197F1F700C0000008958FEF5C
:1001600084BB83E30E94490082E30E94490088E245
:100170000E9449008CE00E94490081E00E944900F1
:100180008FE39FE10197F1F700C0000086E00E9435
:1001900049000895CF93DF9300D000D0CDB7DEB7EC
:1001A00090E8998390EC9A8394E99B8394ED9C83E7
:1001B000E82FF0E0319781E090E08C0F9D1FE80F71
:1001C000F91F8081860F81500E9449008FE891E0DD
:1001D0000197F1F700C000000F900F900F900F9063
:1001E000DF91CF9108950F931F93CF938C01C0E0BF
:1001F00003C00E947C00CF5FF801EC0FF11D8081ED
:100200008111F7CFCF911F910F91089584B384602E
:1002100084BB85B38B7F85BB2FEF89EF90E02150A6
:1002200080409040E1F700C0000085B3846085BB4A
:10023000089584B38B7F84BB9A99FECF9A9BFECF9F
:100240009A99FECF089520E030E019C09A9BFECF26
:1002500080EA8A95F1F79A9B09C08091680090E046
:10026000880F991F81608093680005C080916800A5
:10027000880F809368009A99FECF2F5F3F4F2830F8
:10028000310524F38091680008950E9406010E94C0
:1002900019010E942301809370000E942301809322
:1002A0006E000E94230180936F000E9423018093BF
:1002B00071000E94230180937200E0917000F0E0D1
:1002C00090916E009F01290F311D90916F00290FB1
:1002D000311D90917100290F311D482F50E02417D6
:1002E000350729F080E690E00E94F3001CC04AE048
:1002F00050E069E670E0CF010E94040289E690E0D8
:100300000E94F30086E690E00E94F30080916E0068
:100310004AE050E069E670E090E00E94040289E65D
:1003200090E00E94F3002FEF83ED90E32150804096
:100330009040E1F700C0000008950E9406010E946D
:1003400019010E942301809370000E942301809371
:100350006E000E94230180936F000E94230180930E
:1003600071000E942301809372009091700020918F
:100370006E0030E0290F311DE0916F00F0E02E0F8C
:100380003F1F90917100290F311D482F50E0241715
:10039000350729F080E690E00E94F3001CC04AE097
:1003A00050E069E670E0CF010E94040289E690E027
:1003B0000E94F30086E690E00E94F30080917100B5
:1003C0004AE050E069E670E090E00E94040289E6AD
:1003D00090E00E94F3002FEF83ED90E321508040E6
:1003E0009040E1F700C0000008950E94AF0061E076
:1003F00081E00E94CA000E94450161E082E00E9403
:10040000CA000E949D01F3CF4532510520F44230CD
:1004100010F00C940F02FB011082CB010895BB2752
:100420004A3031F4992322F4BDE2909581959F4F93
:100430000C941B02BB27FB015527AA27880F991F85
:10044000AA1FA41710F0A41B83955051B9F7A05D03
:10045000AA3308F0A95DA193009779F7B111B19380
:100460001192CB010C943402DC01FC01672F7191D5
:100470007723E1F7329704C07C916D93708362918A
:0C048000AE17BF07C8F30895F894FFCF33
:08048C004572726F72002E0030
:00000001FF
