:100000000C942A000C9447000C9447000C94470071
:100010000C9447000C9447000C9447000C94470044
:100020000C9447000C9447000C9447000C94470034
:100030000C9447000C947F000C9447000C944700EC
:100040000C9447000C9447000C9447000C94470014
:100050000C94470011241FBECFE5D8E0DEBFCDBF12
:1000600010E0A0E6B0E0ECE5F1E002C005900D92F2
:10007000A037B107D9F720E0A0E7B0E001C01D929A
:10008000A037B207E1F70E94A5000C94AC000C94D5
:10009000000087E689B988E98AB986E880BD789446
:1000A00008958CB92FEF83ED90E32150804090406C
:1000B000E1F700C0000080E28BB90895EF92FF9253
:1000C0000F931F93CF937C01C0E011C087010C0FE9
:1000D000111DF80180810E945100F8018081811179
:1000E00005C0F701EC59FF4F108203C0CF5FC43643
:1000F00068F3CF911F910F91FF90EF9008951F9299
:100100000F920FB60F9211242F933F934F935F934B
:100110006F937F938F939F93AF93BF93EF93FF93CF
:100120008CB190E00E945E00FF91EF91BF91AF9182
:100130009F918F917F916F915F914F913F912F91FF
:100140000F900FBE0F901F9018950E94490080E6F7
:0C01500090E00E945E00FFCFF894FFCF0B
:10015C006F72206B7961206861616C206861690045
:00000001FF
